{
  "contractName": "GameHub",
  "abi": [
    {
      "constant": true,
      "inputs": [
        {
          "name": "",
          "type": "uint256"
        }
      ],
      "name": "games",
      "outputs": [
        {
          "name": "",
          "type": "address"
        }
      ],
      "payable": false,
      "stateMutability": "view",
      "type": "function"
    },
    {
      "constant": false,
      "inputs": [
        {
          "name": "newOwner",
          "type": "address"
        }
      ],
      "name": "setOwner",
      "outputs": [
        {
          "name": "res",
          "type": "bool"
        }
      ],
      "payable": false,
      "stateMutability": "nonpayable",
      "type": "function"
    },
    {
      "constant": true,
      "inputs": [],
      "name": "isOn",
      "outputs": [
        {
          "name": "",
          "type": "bool"
        }
      ],
      "payable": false,
      "stateMutability": "view",
      "type": "function"
    },
    {
      "constant": true,
      "inputs": [],
      "name": "owner",
      "outputs": [
        {
          "name": "",
          "type": "address"
        }
      ],
      "payable": false,
      "stateMutability": "view",
      "type": "function"
    },
    {
      "constant": false,
      "inputs": [
        {
          "name": "on",
          "type": "bool"
        }
      ],
      "name": "startOrStop",
      "outputs": [
        {
          "name": "success",
          "type": "bool"
        }
      ],
      "payable": false,
      "stateMutability": "nonpayable",
      "type": "function"
    },
    {
      "anonymous": false,
      "inputs": [
        {
          "indexed": true,
          "name": "sender",
          "type": "address"
        },
        {
          "indexed": true,
          "name": "startOrStop",
          "type": "bool"
        }
      ],
      "name": "LogStartOrStop",
      "type": "event"
    },
    {
      "constant": true,
      "inputs": [],
      "name": "getGamesCount",
      "outputs": [
        {
          "name": "count",
          "type": "uint256"
        }
      ],
      "payable": false,
      "stateMutability": "view",
      "type": "function"
    },
    {
      "constant": false,
      "inputs": [],
      "name": "newGame",
      "outputs": [
        {
          "name": "rockPaperScissorGame",
          "type": "address"
        }
      ],
      "payable": false,
      "stateMutability": "nonpayable",
      "type": "function"
    },
    {
      "constant": false,
      "inputs": [
        {
          "name": "game",
          "type": "address"
        }
      ],
      "name": "stopGame",
      "outputs": [
        {
          "name": "sucess",
          "type": "bool"
        }
      ],
      "payable": false,
      "stateMutability": "nonpayable",
      "type": "function"
    },
    {
      "constant": false,
      "inputs": [
        {
          "name": "game",
          "type": "address"
        }
      ],
      "name": "startGame",
      "outputs": [
        {
          "name": "sucess",
          "type": "bool"
        }
      ],
      "payable": false,
      "stateMutability": "nonpayable",
      "type": "function"
    },
    {
      "constant": false,
      "inputs": [
        {
          "name": "owner",
          "type": "address"
        },
        {
          "name": "newOwner",
          "type": "address"
        }
      ],
      "name": "changeGameOwner",
      "outputs": [
        {
          "name": "success",
          "type": "bool"
        }
      ],
      "payable": false,
      "stateMutability": "nonpayable",
      "type": "function"
    }
  ],
  "bytecode": "0x6060604052336000806101000a81548173ffffffffffffffffffffffffffffffffffffffff021916908373ffffffffffffffffffffffffffffffffffffffff1602179055506001600060146101000a81548160ff0219169083151502179055506131928061006e6000396000f3006060604052600436106100a4576000357c0100000000000000000000000000000000000000000000000000000000900463ffffffff168063117a5b90146100a957806313af40351461010c578063175bbecf1461015d57806317b7a4761461018a578063464f192d146101b35780637d03f5f3146102235780638da5cb5b146102785780639c3e21ae146102cd578063d708e27b1461031e578063eddd8a621461036f575b600080fd5b34156100b457600080fd5b6100ca60048080359060200190919050506103ac565b604051808273ffffffffffffffffffffffffffffffffffffffff1673ffffffffffffffffffffffffffffffffffffffff16815260200191505060405180910390f35b341561011757600080fd5b610143600480803573ffffffffffffffffffffffffffffffffffffffff169060200190919050506103eb565b604051808215151515815260200191505060405180910390f35b341561016857600080fd5b610170610491565b604051808215151515815260200191505060405180910390f35b341561019557600080fd5b61019d6104a4565b6040518082815260200191505060405180910390f35b34156101be57600080fd5b610209600480803573ffffffffffffffffffffffffffffffffffffffff1690602001909190803573ffffffffffffffffffffffffffffffffffffffff169060200190919050506104b1565b604051808215151515815260200191505060405180910390f35b341561022e57600080fd5b610236610633565b604051808273ffffffffffffffffffffffffffffffffffffffff1673ffffffffffffffffffffffffffffffffffffffff16815260200191505060405180910390f35b341561028357600080fd5b61028b610758565b604051808273ffffffffffffffffffffffffffffffffffffffff1673ffffffffffffffffffffffffffffffffffffffff16815260200191505060405180910390f35b34156102d857600080fd5b610304600480803573ffffffffffffffffffffffffffffffffffffffff1690602001909190505061077d565b604051808215151515815260200191505060405180910390f35b341561032957600080fd5b610355600480803573ffffffffffffffffffffffffffffffffffffffff169060200190919050506108d7565b604051808215151515815260200191505060405180910390f35b341561037a57600080fd5b61039260048080351515906020019091905050610a30565b604051808215151515815260200191505060405180910390f35b6001818154811015156103bb57fe5b90600052602060002090016000915054906101000a900473ffffffffffffffffffffffffffffffffffffffff1681565b60008060009054906101000a900473ffffffffffffffffffffffffffffffffffffffff1673ffffffffffffffffffffffffffffffffffffffff163373ffffffffffffffffffffffffffffffffffffffff1614151561044857600080fd5b816000806101000a81548173ffffffffffffffffffffffffffffffffffffffff021916908373ffffffffffffffffffffffffffffffffffffffff16021790555060019050919050565b600060149054906101000a900460ff1681565b6000600180549050905090565b6000806000809054906101000a900473ffffffffffffffffffffffffffffffffffffffff1673ffffffffffffffffffffffffffffffffffffffff163373ffffffffffffffffffffffffffffffffffffffff1614151561050f57600080fd5b83600260008273ffffffffffffffffffffffffffffffffffffffff1673ffffffffffffffffffffffffffffffffffffffff16815260200190815260200160002060009054906101000a900460ff16151561056857600080fd5b8491508173ffffffffffffffffffffffffffffffffffffffff166313af4035856000604051602001526040518263ffffffff167c0100000000000000000000000000000000000000000000000000000000028152600401808273ffffffffffffffffffffffffffffffffffffffff1673ffffffffffffffffffffffffffffffffffffffff168152602001915050602060405180830381600087803b151561060e57600080fd5b6102c65a03f1151561061f57600080fd5b505050604051805190509250505092915050565b600080600233610641610af6565b808381526020018273ffffffffffffffffffffffffffffffffffffffff1673ffffffffffffffffffffffffffffffffffffffff16815260200192505050604051809103906000f080151561069457600080fd5b9050600180548060010182816106aa9190610b06565b9160005260206000209001600083909190916101000a81548173ffffffffffffffffffffffffffffffffffffffff021916908373ffffffffffffffffffffffffffffffffffffffff160217905550506001600260008473ffffffffffffffffffffffffffffffffffffffff1673ffffffffffffffffffffffffffffffffffffffff16815260200190815260200160002060006101000a81548160ff0219169083151502179055508091505090565b6000809054906101000a900473ffffffffffffffffffffffffffffffffffffffff1681565b6000806000809054906101000a900473ffffffffffffffffffffffffffffffffffffffff1673ffffffffffffffffffffffffffffffffffffffff163373ffffffffffffffffffffffffffffffffffffffff161415156107db57600080fd5b82600260008273ffffffffffffffffffffffffffffffffffffffff1673ffffffffffffffffffffffffffffffffffffffff16815260200190815260200160002060009054906101000a900460ff16151561083457600080fd5b8391508173ffffffffffffffffffffffffffffffffffffffff1663eddd8a6260016000604051602001526040518263ffffffff167c01000000000000000000000000000000000000000000000000000000000281526004018082151515158152602001915050602060405180830381600087803b15156108b357600080fd5b6102c65a03f115156108c457600080fd5b5050506040518051905092505050919050565b6000806000809054906101000a900473ffffffffffffffffffffffffffffffffffffffff1673ffffffffffffffffffffffffffffffffffffffff163373ffffffffffffffffffffffffffffffffffffffff1614151561093557600080fd5b82600260008273ffffffffffffffffffffffffffffffffffffffff1673ffffffffffffffffffffffffffffffffffffffff16815260200190815260200160002060009054906101000a900460ff16151561098e57600080fd5b8391508173ffffffffffffffffffffffffffffffffffffffff1663eddd8a62600080604051602001526040518263ffffffff167c01000000000000000000000000000000000000000000000000000000000281526004018082151515158152602001915050602060405180830381600087803b1515610a0c57600080fd5b6102c65a03f11515610a1d57600080fd5b5050506040518051905092505050919050565b60008060009054906101000a900473ffffffffffffffffffffffffffffffffffffffff1673ffffffffffffffffffffffffffffffffffffffff163373ffffffffffffffffffffffffffffffffffffffff16141515610a8d57600080fd5b81600060146101000a81548160ff0219169083151502179055508115153373ffffffffffffffffffffffffffffffffffffffff167f807c63a4d96aea04e9012bee90f76719fa7521b35eee8436a635ebd7ba6b5f4260405160405180910390a360019050919050565b60405161260f80610b5883390190565b815481835581811511610b2d57818360005260206000209182019101610b2c9190610b32565b5b505050565b610b5491905b80821115610b50576000816000905550600101610b38565b5090565b9056006060604052341561000f57600080fd5b60405160408061260f83398101604052808051906020019091908051906020019091905050336000806101000a81548173ffffffffffffffffffffffffffffffffffffffff021916908373ffffffffffffffffffffffffffffffffffffffff1602179055506001600060146101000a81548160ff02191690831515021790555080600860006101000a81548173ffffffffffffffffffffffffffffffffffffffff021916908373ffffffffffffffffffffffffffffffffffffffff160217905550816001819055505050612527806100e86000396000f3006060604052600436106100f1576000357c0100000000000000000000000000000000000000000000000000000000900463ffffffff16806313af4035146100f6578063175bbecf14610147578063438adb51146101745780635ad39846146101d757806369b77d271461028a5780636f4bda17146102a657806380c9597f146102cf5780638da5cb5b1461031f57806393e84cd914610374578063b357a02814610389578063b93e0e39146103e8578063c44d6f8714610447578063c7aa327b146104a6578063e10b650b1461057d578063eddd8a6214610592578063f6b12f28146105cf578063f71d96cb14610624575b600080fd5b341561010157600080fd5b61012d600480803573ffffffffffffffffffffffffffffffffffffffff16906020019091905050610687565b604051808215151515815260200191505060405180910390f35b341561015257600080fd5b61015a61072d565b604051808215151515815260200191505060405180910390f35b341561017f57600080fd5b6101bd600480803577ffffffffffffffffffffffffffffffffffffffffffffffff191690602001909190803560001916906020019091905050610740565b604051808215151515815260200191505060405180910390f35b34156101e257600080fd5b6101ea610a2f565b604051808673ffffffffffffffffffffffffffffffffffffffff1673ffffffffffffffffffffffffffffffffffffffff1681526020018577ffffffffffffffffffffffffffffffffffffffffffffffff191677ffffffffffffffffffffffffffffffffffffffffffffffff191681526020018481526020018360001916600019168152602001821515151581526020019550505050505060405180910390f35b6102a4600480803560001916906020019091905050610aa5565b005b34156102b157600080fd5b6102b9610e19565b6040518082815260200191505060405180910390f35b34156102da57600080fd5b61030160048080356000191690602001909190803560001916906020019091905050610e1f565b60405180826000191660001916815260200191505060405180910390f35b341561032a57600080fd5b610332610e57565b604051808273ffffffffffffffffffffffffffffffffffffffff1673ffffffffffffffffffffffffffffffffffffffff16815260200191505060405180910390f35b341561037f57600080fd5b610387610e7c565b005b341561039457600080fd5b61039c61203c565b604051808277ffffffffffffffffffffffffffffffffffffffffffffffff191677ffffffffffffffffffffffffffffffffffffffffffffffff1916815260200191505060405180910390f35b34156103f357600080fd5b6103fb612060565b604051808277ffffffffffffffffffffffffffffffffffffffffffffffff191677ffffffffffffffffffffffffffffffffffffffffffffffff1916815260200191505060405180910390f35b341561045257600080fd5b61045a612084565b604051808277ffffffffffffffffffffffffffffffffffffffffffffffff191677ffffffffffffffffffffffffffffffffffffffffffffffff1916815260200191505060405180910390f35b34156104b157600080fd5b6104dd600480803573ffffffffffffffffffffffffffffffffffffffff169060200190919050506120a8565b604051808673ffffffffffffffffffffffffffffffffffffffff1673ffffffffffffffffffffffffffffffffffffffff1681526020018577ffffffffffffffffffffffffffffffffffffffffffffffff191677ffffffffffffffffffffffffffffffffffffffffffffffff191681526020018481526020018360001916600019168152602001821515151581526020019550505050505060405180910390f35b341561058857600080fd5b610590612130565b005b341561059d57600080fd5b6105b560048080351515906020019091905050612288565b604051808215151515815260200191505060405180910390f35b34156105da57600080fd5b6105e261234e565b604051808273ffffffffffffffffffffffffffffffffffffffff1673ffffffffffffffffffffffffffffffffffffffff16815260200191505060405180910390f35b341561062f57600080fd5b6106456004808035906020019091905050612374565b604051808273ffffffffffffffffffffffffffffffffffffffff1673ffffffffffffffffffffffffffffffffffffffff16815260200191505060405180910390f35b60008060009054906101000a900473ffffffffffffffffffffffffffffffffffffffff1673ffffffffffffffffffffffffffffffffffffffff163373ffffffffffffffffffffffffffffffffffffffff161415156106e457600080fd5b816000806101000a81548173ffffffffffffffffffffffffffffffffffffffff021916908373ffffffffffffffffffffffffffffffffffffffff16021790555060019050919050565b600060149054906101000a900460ff1681565b600060011515600060149054906101000a900460ff16151514151561076457600080fd5b600260015414151561077557600080fd5b3373ffffffffffffffffffffffffffffffffffffffff16600660003373ffffffffffffffffffffffffffffffffffffffff1673ffffffffffffffffffffffffffffffffffffffff16815260200190815260200160002060000160009054906101000a900473ffffffffffffffffffffffffffffffffffffffff1673ffffffffffffffffffffffffffffffffffffffff1614151561081157600080fd5b8160001916600660003373ffffffffffffffffffffffffffffffffffffffff1673ffffffffffffffffffffffffffffffffffffffff168152602001908152602001600020600201546000191614151561086957600080fd5b600078010000000000000000000000000000000000000000000000000277ffffffffffffffffffffffffffffffffffffffffffffffff19168377ffffffffffffffffffffffffffffffffffffffffffffffff1916141515156108ca57600080fd5b6108ee8377ffffffffffffffffffffffffffffffffffffffffffffffff19166123a7565b15156108f957600080fd5b82600660003373ffffffffffffffffffffffffffffffffffffffff1673ffffffffffffffffffffffffffffffffffffffff16815260200190815260200160002060000160146101000a81548167ffffffffffffffff02191690837801000000000000000000000000000000000000000000000000900402179055507fc061f7d05e99d706886409d3472ee3118102126253ebdc09505f66cc22de9a38338484604051808473ffffffffffffffffffffffffffffffffffffffff1673ffffffffffffffffffffffffffffffffffffffff1681526020018377ffffffffffffffffffffffffffffffffffffffffffffffff191677ffffffffffffffffffffffffffffffffffffffffffffffff191681526020018260001916600019168152602001935050505060405180910390a16001905092915050565b60028060000160009054906101000a900473ffffffffffffffffffffffffffffffffffffffff16908060000160149054906101000a9004780100000000000000000000000000000000000000000000000002908060010154908060020154908060030160009054906101000a900460ff16905085565b610aad612495565b60011515600060149054906101000a900460ff161515141515610acf57600080fd5b6000809054906101000a900473ffffffffffffffffffffffffffffffffffffffff1673ffffffffffffffffffffffffffffffffffffffff163373ffffffffffffffffffffffffffffffffffffffff1614151515610b2b57600080fd5b600073ffffffffffffffffffffffffffffffffffffffff16600660003373ffffffffffffffffffffffffffffffffffffffff1673ffffffffffffffffffffffffffffffffffffffff16815260200190815260200160002060000160009054906101000a900473ffffffffffffffffffffffffffffffffffffffff1673ffffffffffffffffffffffffffffffffffffffff16141515610bc857600080fd5b6002600154101515610bd957600080fd5b33816000019073ffffffffffffffffffffffffffffffffffffffff16908173ffffffffffffffffffffffffffffffffffffffff168152505034816040018181525050818160600190600019169081600019168152505080600660003373ffffffffffffffffffffffffffffffffffffffff1673ffffffffffffffffffffffffffffffffffffffff16815260200190815260200160002060008201518160000160006101000a81548173ffffffffffffffffffffffffffffffffffffffff021916908373ffffffffffffffffffffffffffffffffffffffff16021790555060208201518160000160146101000a81548167ffffffffffffffff0219169083780100000000000000000000000000000000000000000000000090040217905550604082015181600101556060820151816002019060001916905560808201518160030160006101000a81548160ff0219169083151502179055509050506001600081548092919060010191905055503360076000600154815260200190815260200160002060006101000a81548173ffffffffffffffffffffffffffffffffffffffff021916908373ffffffffffffffffffffffffffffffffffffffff1602179055507fe8207420d5957a2b7caa0eb8b0c9209d7332e66f0cfdf4afaeaa78b3c2182e0f333484604051808473ffffffffffffffffffffffffffffffffffffffff1673ffffffffffffffffffffffffffffffffffffffff1681526020018381526020018260001916600019168152602001935050505060405180910390a15050565b60015481565b600082826040518083600019166000191681526020018260001916600019168152602001925050506040518091039020905092915050565b6000809054906101000a900473ffffffffffffffffffffffffffffffffffffffff1681565b600080600860009054906101000a900473ffffffffffffffffffffffffffffffffffffffff1673ffffffffffffffffffffffffffffffffffffffff163373ffffffffffffffffffffffffffffffffffffffff16141515610edb57600080fd5b60011515600060149054906101000a900460ff161515141515610efd57600080fd5b6002600154141515610f0e57600080fd5b60066000600760006001815260200190815260200160002060009054906101000a900473ffffffffffffffffffffffffffffffffffffffff1673ffffffffffffffffffffffffffffffffffffffff1673ffffffffffffffffffffffffffffffffffffffff16815260200190815260200160002060000160149054906101000a9004780100000000000000000000000000000000000000000000000002915060066000600760006002815260200190815260200160002060009054906101000a900473ffffffffffffffffffffffffffffffffffffffff1673ffffffffffffffffffffffffffffffffffffffff1673ffffffffffffffffffffffffffffffffffffffff16815260200190815260200160002060000160149054906101000a900478010000000000000000000000000000000000000000000000000290507f524f434b0000000000000000000000000000000000000000000000000000000077ffffffffffffffffffffffffffffffffffffffffffffffff19168277ffffffffffffffffffffffffffffffffffffffffffffffff1916141561159a577f504150455200000000000000000000000000000000000000000000000000000077ffffffffffffffffffffffffffffffffffffffffffffffff19168177ffffffffffffffffffffffffffffffffffffffffffffffff191614156113205760066000600760006002815260200190815260200160002060009054906101000a900473ffffffffffffffffffffffffffffffffffffffff1673ffffffffffffffffffffffffffffffffffffffff1673ffffffffffffffffffffffffffffffffffffffff16815260200190815260200160002060026000820160009054906101000a900473ffffffffffffffffffffffffffffffffffffffff168160000160006101000a81548173ffffffffffffffffffffffffffffffffffffffff021916908373ffffffffffffffffffffffffffffffffffffffff1602179055506000820160149054906101000a90047801000000000000000000000000000000000000000000000000028160000160146101000a81548167ffffffffffffffff021916908378010000000000000000000000000000000000000000000000009004021790555060018201548160010155600282015481600201906000191690556003820160009054906101000a900460ff168160030160006101000a81548160ff02191690831515021790555090505060066000600760006001815260200190815260200160002060009054906101000a900473ffffffffffffffffffffffffffffffffffffffff1673ffffffffffffffffffffffffffffffffffffffff1673ffffffffffffffffffffffffffffffffffffffff16815260200190815260200160002060010154600260010160008282540192505081905550611595565b7f53434953534f525300000000000000000000000000000000000000000000000077ffffffffffffffffffffffffffffffffffffffffffffffff19168177ffffffffffffffffffffffffffffffffffffffffffffffff191614156115945760066000600760006001815260200190815260200160002060009054906101000a900473ffffffffffffffffffffffffffffffffffffffff1673ffffffffffffffffffffffffffffffffffffffff1673ffffffffffffffffffffffffffffffffffffffff16815260200190815260200160002060026000820160009054906101000a900473ffffffffffffffffffffffffffffffffffffffff168160000160006101000a81548173ffffffffffffffffffffffffffffffffffffffff021916908373ffffffffffffffffffffffffffffffffffffffff1602179055506000820160149054906101000a90047801000000000000000000000000000000000000000000000000028160000160146101000a81548167ffffffffffffffff021916908378010000000000000000000000000000000000000000000000009004021790555060018201548160010155600282015481600201906000191690556003820160009054906101000a900460ff168160030160006101000a81548160ff02191690831515021790555090505060066000600760006002815260200190815260200160002060009054906101000a900473ffffffffffffffffffffffffffffffffffffffff1673ffffffffffffffffffffffffffffffffffffffff1673ffffffffffffffffffffffffffffffffffffffff168152602001908152602001600020600101546002600101600082825401925050819055505b5b612038565b7f504150455200000000000000000000000000000000000000000000000000000077ffffffffffffffffffffffffffffffffffffffffffffffff19168277ffffffffffffffffffffffffffffffffffffffffffffffff19161415611aea577f524f434b0000000000000000000000000000000000000000000000000000000077ffffffffffffffffffffffffffffffffffffffffffffffff19168177ffffffffffffffffffffffffffffffffffffffffffffffff191614156118705760066000600760006001815260200190815260200160002060009054906101000a900473ffffffffffffffffffffffffffffffffffffffff1673ffffffffffffffffffffffffffffffffffffffff1673ffffffffffffffffffffffffffffffffffffffff16815260200190815260200160002060026000820160009054906101000a900473ffffffffffffffffffffffffffffffffffffffff168160000160006101000a81548173ffffffffffffffffffffffffffffffffffffffff021916908373ffffffffffffffffffffffffffffffffffffffff1602179055506000820160149054906101000a90047801000000000000000000000000000000000000000000000000028160000160146101000a81548167ffffffffffffffff021916908378010000000000000000000000000000000000000000000000009004021790555060018201548160010155600282015481600201906000191690556003820160009054906101000a900460ff168160030160006101000a81548160ff02191690831515021790555090505060066000600760006002815260200190815260200160002060009054906101000a900473ffffffffffffffffffffffffffffffffffffffff1673ffffffffffffffffffffffffffffffffffffffff1673ffffffffffffffffffffffffffffffffffffffff16815260200190815260200160002060010154600260010160008282540192505081905550611ae5565b7f53434953534f525300000000000000000000000000000000000000000000000077ffffffffffffffffffffffffffffffffffffffffffffffff19168177ffffffffffffffffffffffffffffffffffffffffffffffff19161415611ae45760066000600760006002815260200190815260200160002060009054906101000a900473ffffffffffffffffffffffffffffffffffffffff1673ffffffffffffffffffffffffffffffffffffffff1673ffffffffffffffffffffffffffffffffffffffff16815260200190815260200160002060026000820160009054906101000a900473ffffffffffffffffffffffffffffffffffffffff168160000160006101000a81548173ffffffffffffffffffffffffffffffffffffffff021916908373ffffffffffffffffffffffffffffffffffffffff1602179055506000820160149054906101000a90047801000000000000000000000000000000000000000000000000028160000160146101000a81548167ffffffffffffffff021916908378010000000000000000000000000000000000000000000000009004021790555060018201548160010155600282015481600201906000191690556003820160009054906101000a900460ff168160030160006101000a81548160ff02191690831515021790555090505060066000600760006001815260200190815260200160002060009054906101000a900473ffffffffffffffffffffffffffffffffffffffff1673ffffffffffffffffffffffffffffffffffffffff1673ffffffffffffffffffffffffffffffffffffffff168152602001908152602001600020600101546002600101600082825401925050819055505b5b612037565b7f53434953534f525300000000000000000000000000000000000000000000000077ffffffffffffffffffffffffffffffffffffffffffffffff19168277ffffffffffffffffffffffffffffffffffffffffffffffff19161415612036577f524f434b0000000000000000000000000000000000000000000000000000000077ffffffffffffffffffffffffffffffffffffffffffffffff19168177ffffffffffffffffffffffffffffffffffffffffffffffff19161415611dc05760066000600760006002815260200190815260200160002060009054906101000a900473ffffffffffffffffffffffffffffffffffffffff1673ffffffffffffffffffffffffffffffffffffffff1673ffffffffffffffffffffffffffffffffffffffff16815260200190815260200160002060026000820160009054906101000a900473ffffffffffffffffffffffffffffffffffffffff168160000160006101000a81548173ffffffffffffffffffffffffffffffffffffffff021916908373ffffffffffffffffffffffffffffffffffffffff1602179055506000820160149054906101000a90047801000000000000000000000000000000000000000000000000028160000160146101000a81548167ffffffffffffffff021916908378010000000000000000000000000000000000000000000000009004021790555060018201548160010155600282015481600201906000191690556003820160009054906101000a900460ff168160030160006101000a81548160ff02191690831515021790555090505060066000600760006001815260200190815260200160002060009054906101000a900473ffffffffffffffffffffffffffffffffffffffff1673ffffffffffffffffffffffffffffffffffffffff1673ffffffffffffffffffffffffffffffffffffffff16815260200190815260200160002060010154600260010160008282540192505081905550612035565b7f504150455200000000000000000000000000000000000000000000000000000077ffffffffffffffffffffffffffffffffffffffffffffffff19168177ffffffffffffffffffffffffffffffffffffffffffffffff191614156120345760066000600760006001815260200190815260200160002060009054906101000a900473ffffffffffffffffffffffffffffffffffffffff1673ffffffffffffffffffffffffffffffffffffffff1673ffffffffffffffffffffffffffffffffffffffff16815260200190815260200160002060026000820160009054906101000a900473ffffffffffffffffffffffffffffffffffffffff168160000160006101000a81548173ffffffffffffffffffffffffffffffffffffffff021916908373ffffffffffffffffffffffffffffffffffffffff1602179055506000820160149054906101000a90047801000000000000000000000000000000000000000000000000028160000160146101000a81548167ffffffffffffffff021916908378010000000000000000000000000000000000000000000000009004021790555060018201548160010155600282015481600201906000191690556003820160009054906101000a900460ff168160030160006101000a81548160ff02191690831515021790555090505060066000600760006002815260200190815260200160002060009054906101000a900473ffffffffffffffffffffffffffffffffffffffff1673ffffffffffffffffffffffffffffffffffffffff1673ffffffffffffffffffffffffffffffffffffffff168152602001908152602001600020600101546002600101600082825401925050819055505b5b5b5b5b5050565b7f53434953534f525300000000000000000000000000000000000000000000000081565b7f524f434b0000000000000000000000000000000000000000000000000000000081565b7f504150455200000000000000000000000000000000000000000000000000000081565b60066020528060005260406000206000915090508060000160009054906101000a900473ffffffffffffffffffffffffffffffffffffffff16908060000160149054906101000a9004780100000000000000000000000000000000000000000000000002908060010154908060020154908060030160009054906101000a900460ff16905085565b600060011515600060149054906101000a900460ff16151514151561215457600080fd5b3373ffffffffffffffffffffffffffffffffffffffff16600260000160009054906101000a900473ffffffffffffffffffffffffffffffffffffffff1673ffffffffffffffffffffffffffffffffffffffff161415156121b357600080fd5b60006002600101541115156121c757600080fd5b600260010154905060006002600101819055507fee0190091274dfba5603fd0b1508f6a23a1f85a80a98ad95b9a64e7d3790e9643382604051808373ffffffffffffffffffffffffffffffffffffffff1673ffffffffffffffffffffffffffffffffffffffff1681526020018281526020019250505060405180910390a13373ffffffffffffffffffffffffffffffffffffffff166108fc829081150290604051600060405180830381858888f19350505050151561228557600080fd5b50565b60008060009054906101000a900473ffffffffffffffffffffffffffffffffffffffff1673ffffffffffffffffffffffffffffffffffffffff163373ffffffffffffffffffffffffffffffffffffffff161415156122e557600080fd5b81600060146101000a81548160ff0219169083151502179055508115153373ffffffffffffffffffffffffffffffffffffffff167f807c63a4d96aea04e9012bee90f76719fa7521b35eee8436a635ebd7ba6b5f4260405160405180910390a360019050919050565b600860009054906101000a900473ffffffffffffffffffffffffffffffffffffffff1681565b60076020528060005260406000206000915054906101000a900473ffffffffffffffffffffffffffffffffffffffff1681565b60007f524f434b0000000000000000000000000000000000000000000000000000000077ffffffffffffffffffffffffffffffffffffffffffffffff19168260001916148061243457507f504150455200000000000000000000000000000000000000000000000000000077ffffffffffffffffffffffffffffffffffffffffffffffff19168260001916145b8061247d57507f53434953534f525300000000000000000000000000000000000000000000000077ffffffffffffffffffffffffffffffffffffffffffffffff19168260001916145b1561248b5760019050612490565b600090505b919050565b60a060405190810160405280600073ffffffffffffffffffffffffffffffffffffffff168152602001600077ffffffffffffffffffffffffffffffffffffffffffffffff19168152602001600081526020016000801916815260200160001515815250905600a165627a7a723058209dd3264913355536c20a2f92450770c6f3c3e81a70bba27518128af1d5f59e7c0029a165627a7a72305820d70a2261515a2f8d8fb8436c994bfa56bb69e5420f431f806a6495402d4bb0a10029",
  "source": "pragma solidity ^0.4.17;\n\nimport \"./Stoppable.sol\";\nimport \"./RockPaperScissor.sol\";\n\ncontract GameHub is Stoppable {\n\n    address[] public games;\n    mapping(address => bool) isGameExists;\n\n    modifier onlyGame(address game) {\n        require(isGameExists[game]);\n        _;\n    }\n\n    function getGamesCount() public constant returns(uint count) {\n        return games.length;\n    }\n\n    function newGame() public returns(address rockPaperScissorGame) {\n        RockPaperScissor rockPaperScissor = new RockPaperScissor(2, msg.sender);\n        games.push(rockPaperScissor);\n        isGameExists[rockPaperScissorGame] = true;\n        return rockPaperScissor;\n    }\n\n\n    function stopGame(address game) public onlyOwner onlyGame(game) returns(bool sucess){\n     \n        RockPaperScissor rockPaperScissor = RockPaperScissor(game);\n        return(rockPaperScissor.startOrStop(false)); \n\n    }\n\n    function startGame(address game) public onlyOwner onlyGame(game) returns(bool sucess){\n     \n        RockPaperScissor rockPaperScissor = RockPaperScissor(game);\n        return(rockPaperScissor.startOrStop(true));\n        \n    }\n\n    function changeGameOwner(address owner, address newOwner) public onlyOwner onlyGame(owner) returns(bool success){\n          \n        RockPaperScissor rockPaperScissor = RockPaperScissor(owner);\n        return(rockPaperScissor.setOwner(newOwner));\n\n    }\n\n\n\n\n}",
  "sourcePath": "/Users/rviparla/Ethereum/Prject3/contracts/GameHub.sol",
  "compiler": {
    "name": "solc",
    "version": "0.4.19+commit.c4cbbb05.Emscripten.clang"
  },
  "schemaVersion": "2.0.0",
  "updatedAt": "2018-03-30T17:39:34.551Z"
}