{
  "contractName": "RockPaperScissor",
  "abi": [
    {
      "constant": true,
      "inputs": [],
      "name": "winningPlayer",
      "outputs": [
        {
          "name": "playerAddress",
          "type": "address"
        },
        {
          "name": "bet",
          "type": "bytes32"
        },
        {
          "name": "betAmount",
          "type": "uint256"
        }
      ],
      "payable": false,
      "stateMutability": "view",
      "type": "function"
    },
    {
      "constant": true,
      "inputs": [],
      "name": "numberOfPlayers",
      "outputs": [
        {
          "name": "",
          "type": "uint256"
        }
      ],
      "payable": false,
      "stateMutability": "view",
      "type": "function"
    },
    {
      "constant": true,
      "inputs": [],
      "name": "owner",
      "outputs": [
        {
          "name": "",
          "type": "address"
        }
      ],
      "payable": false,
      "stateMutability": "view",
      "type": "function"
    },
    {
      "constant": true,
      "inputs": [],
      "name": "SCISSORS",
      "outputs": [
        {
          "name": "",
          "type": "bytes32"
        }
      ],
      "payable": false,
      "stateMutability": "view",
      "type": "function"
    },
    {
      "constant": true,
      "inputs": [],
      "name": "ROCK",
      "outputs": [
        {
          "name": "",
          "type": "bytes32"
        }
      ],
      "payable": false,
      "stateMutability": "view",
      "type": "function"
    },
    {
      "constant": true,
      "inputs": [],
      "name": "PAPER",
      "outputs": [
        {
          "name": "",
          "type": "bytes32"
        }
      ],
      "payable": false,
      "stateMutability": "view",
      "type": "function"
    },
    {
      "constant": true,
      "inputs": [
        {
          "name": "",
          "type": "address"
        }
      ],
      "name": "playerBets",
      "outputs": [
        {
          "name": "playerAddress",
          "type": "address"
        },
        {
          "name": "bet",
          "type": "bytes32"
        },
        {
          "name": "betAmount",
          "type": "uint256"
        }
      ],
      "payable": false,
      "stateMutability": "view",
      "type": "function"
    },
    {
      "constant": true,
      "inputs": [
        {
          "name": "",
          "type": "uint256"
        }
      ],
      "name": "players",
      "outputs": [
        {
          "name": "",
          "type": "address"
        }
      ],
      "payable": false,
      "stateMutability": "view",
      "type": "function"
    },
    {
      "anonymous": false,
      "inputs": [
        {
          "indexed": false,
          "name": "from",
          "type": "address"
        },
        {
          "indexed": false,
          "name": "amountSent",
          "type": "uint256"
        }
      ],
      "name": "LogCreatePlayer",
      "type": "event"
    },
    {
      "anonymous": false,
      "inputs": [
        {
          "indexed": false,
          "name": "from",
          "type": "address"
        },
        {
          "indexed": false,
          "name": "bidValue",
          "type": "bytes32"
        }
      ],
      "name": "LogBidPlace",
      "type": "event"
    },
    {
      "anonymous": false,
      "inputs": [
        {
          "indexed": false,
          "name": "winner",
          "type": "address"
        },
        {
          "indexed": false,
          "name": "amountWon",
          "type": "uint256"
        }
      ],
      "name": "LogWinnerNotification",
      "type": "event"
    },
    {
      "constant": false,
      "inputs": [],
      "name": "createPlayer",
      "outputs": [],
      "payable": true,
      "stateMutability": "payable",
      "type": "function"
    },
    {
      "constant": false,
      "inputs": [
        {
          "name": "bidValue",
          "type": "bytes32"
        }
      ],
      "name": "placeBid",
      "outputs": [
        {
          "name": "success",
          "type": "bool"
        }
      ],
      "payable": false,
      "stateMutability": "nonpayable",
      "type": "function"
    },
    {
      "constant": false,
      "inputs": [],
      "name": "play",
      "outputs": [],
      "payable": false,
      "stateMutability": "nonpayable",
      "type": "function"
    },
    {
      "constant": false,
      "inputs": [],
      "name": "winnerWithdraw",
      "outputs": [],
      "payable": false,
      "stateMutability": "nonpayable",
      "type": "function"
    }
  ],
  "bytecode": "0x6060604052336000806101000a81548173ffffffffffffffffffffffffffffffffffffffff021916908373ffffffffffffffffffffffffffffffffffffffff1602179055506117bb806100536000396000f3006060604052600436106100ba576000357c0100000000000000000000000000000000000000000000000000000000900463ffffffff1680633fa9fcf8146100bf578063497ecfc5146100c95780635ad39846146101085780636f4bda17146101735780638da5cb5b1461019c57806393e84cd9146101f1578063b357a02814610206578063b93e0e3914610237578063c44d6f8714610268578063c7aa327b14610299578063e10b650b14610328578063f71d96cb1461033d575b600080fd5b6100c76103a0565b005b34156100d457600080fd5b6100ee60048080356000191690602001909190505061066c565b604051808215151515815260200191505060405180910390f35b341561011357600080fd5b61011b610800565b604051808473ffffffffffffffffffffffffffffffffffffffff1673ffffffffffffffffffffffffffffffffffffffff1681526020018360001916600019168152602001828152602001935050505060405180910390f35b341561017e57600080fd5b610186610838565b6040518082815260200191505060405180910390f35b34156101a757600080fd5b6101af61083e565b604051808273ffffffffffffffffffffffffffffffffffffffff1673ffffffffffffffffffffffffffffffffffffffff16815260200191505060405180910390f35b34156101fc57600080fd5b610204610863565b005b341561021157600080fd5b61021961148f565b60405180826000191660001916815260200191505060405180910390f35b341561024257600080fd5b61024a6114b3565b60405180826000191660001916815260200191505060405180910390f35b341561027357600080fd5b61027b6114d7565b60405180826000191660001916815260200191505060405180910390f35b34156102a457600080fd5b6102d0600480803573ffffffffffffffffffffffffffffffffffffffff169060200190919050506114fb565b604051808473ffffffffffffffffffffffffffffffffffffffff1673ffffffffffffffffffffffffffffffffffffffff1681526020018360001916600019168152602001828152602001935050505060405180910390f35b341561033357600080fd5b61033b611545565b005b341561034857600080fd5b61035e6004808035906020019091905050611678565b604051808273ffffffffffffffffffffffffffffffffffffffff1673ffffffffffffffffffffffffffffffffffffffff16815260200191505060405180910390f35b6103a8611754565b6000809054906101000a900473ffffffffffffffffffffffffffffffffffffffff1673ffffffffffffffffffffffffffffffffffffffff163373ffffffffffffffffffffffffffffffffffffffff161415151561040457600080fd5b600073ffffffffffffffffffffffffffffffffffffffff16600560003373ffffffffffffffffffffffffffffffffffffffff1673ffffffffffffffffffffffffffffffffffffffff16815260200190815260200160002060000160009054906101000a900473ffffffffffffffffffffffffffffffffffffffff1673ffffffffffffffffffffffffffffffffffffffff161415156104a157600080fd5b60026001541015156104b257600080fd5b33816000019073ffffffffffffffffffffffffffffffffffffffff16908173ffffffffffffffffffffffffffffffffffffffff16815250503481604001818152505080600560003373ffffffffffffffffffffffffffffffffffffffff1673ffffffffffffffffffffffffffffffffffffffff16815260200190815260200160002060008201518160000160006101000a81548173ffffffffffffffffffffffffffffffffffffffff021916908373ffffffffffffffffffffffffffffffffffffffff16021790555060208201518160010190600019169055604082015181600201559050506001600081548092919060010191905055503360066000600154815260200190815260200160002060006101000a81548173ffffffffffffffffffffffffffffffffffffffff021916908373ffffffffffffffffffffffffffffffffffffffff1602179055507f4d5df9e98ebd05313b59b4b1bc30cc57e1648262ab8d629ea3b49a0e2bac030d3334604051808373ffffffffffffffffffffffffffffffffffffffff1673ffffffffffffffffffffffffffffffffffffffff1681526020018281526020019250505060405180910390a150565b60003373ffffffffffffffffffffffffffffffffffffffff16600560003373ffffffffffffffffffffffffffffffffffffffff1673ffffffffffffffffffffffffffffffffffffffff16815260200190815260200160002060000160009054906101000a900473ffffffffffffffffffffffffffffffffffffffff1673ffffffffffffffffffffffffffffffffffffffff1614151561070a57600080fd5b60006001026000191682600019161415151561072557600080fd5b61072e826116ab565b151561073957600080fd5b81600560003373ffffffffffffffffffffffffffffffffffffffff1673ffffffffffffffffffffffffffffffffffffffff16815260200190815260200160002060010181600019169055507f9ccdb92aca73fa834c257306a74612fd3c37e94a62fbc55ac94bb63559f739a63383604051808373ffffffffffffffffffffffffffffffffffffffff1673ffffffffffffffffffffffffffffffffffffffff16815260200182600019166000191681526020019250505060405180910390a160019050919050565b60028060000160009054906101000a900473ffffffffffffffffffffffffffffffffffffffff16908060010154908060020154905083565b60015481565b6000809054906101000a900473ffffffffffffffffffffffffffffffffffffffff1681565b6000806000809054906101000a900473ffffffffffffffffffffffffffffffffffffffff1673ffffffffffffffffffffffffffffffffffffffff163373ffffffffffffffffffffffffffffffffffffffff161415156108c157600080fd5b60056000600660006001815260200190815260200160002060009054906101000a900473ffffffffffffffffffffffffffffffffffffffff1673ffffffffffffffffffffffffffffffffffffffff1673ffffffffffffffffffffffffffffffffffffffff16815260200190815260200160002060010154915060056000600660006002815260200190815260200160002060009054906101000a900473ffffffffffffffffffffffffffffffffffffffff1673ffffffffffffffffffffffffffffffffffffffff1673ffffffffffffffffffffffffffffffffffffffff1681526020019081526020016000206001015490507f524f434b000000000000000000000000000000000000000000000000000000006000191682600019161415610d51577f50415045520000000000000000000000000000000000000000000000000000006000191681600019161415610b995760056000600660006002815260200190815260200160002060009054906101000a900473ffffffffffffffffffffffffffffffffffffffff1673ffffffffffffffffffffffffffffffffffffffff1673ffffffffffffffffffffffffffffffffffffffff16815260200190815260200160002060026000820160009054906101000a900473ffffffffffffffffffffffffffffffffffffffff168160000160006101000a81548173ffffffffffffffffffffffffffffffffffffffff021916908373ffffffffffffffffffffffffffffffffffffffff160217905550600182015481600101906000191690556002820154816002015590505060056000600660006001815260200190815260200160002060009054906101000a900473ffffffffffffffffffffffffffffffffffffffff1673ffffffffffffffffffffffffffffffffffffffff1673ffffffffffffffffffffffffffffffffffffffff168152602001908152602001600020600201546002800160008282540192505081905550610d4c565b7f53434953534f52530000000000000000000000000000000000000000000000006000191681600019161415610d4b5760056000600660006001815260200190815260200160002060009054906101000a900473ffffffffffffffffffffffffffffffffffffffff1673ffffffffffffffffffffffffffffffffffffffff1673ffffffffffffffffffffffffffffffffffffffff16815260200190815260200160002060026000820160009054906101000a900473ffffffffffffffffffffffffffffffffffffffff168160000160006101000a81548173ffffffffffffffffffffffffffffffffffffffff021916908373ffffffffffffffffffffffffffffffffffffffff160217905550600182015481600101906000191690556002820154816002015590505060056000600660006002815260200190815260200160002060009054906101000a900473ffffffffffffffffffffffffffffffffffffffff1673ffffffffffffffffffffffffffffffffffffffff1673ffffffffffffffffffffffffffffffffffffffff1681526020019081526020016000206002015460028001600082825401925050819055505b5b61148b565b7f504150455200000000000000000000000000000000000000000000000000000060001916826000191614156110ef577f524f434b000000000000000000000000000000000000000000000000000000006000191681600019161415610f375760056000600660006001815260200190815260200160002060009054906101000a900473ffffffffffffffffffffffffffffffffffffffff1673ffffffffffffffffffffffffffffffffffffffff1673ffffffffffffffffffffffffffffffffffffffff16815260200190815260200160002060026000820160009054906101000a900473ffffffffffffffffffffffffffffffffffffffff168160000160006101000a81548173ffffffffffffffffffffffffffffffffffffffff021916908373ffffffffffffffffffffffffffffffffffffffff160217905550600182015481600101906000191690556002820154816002015590505060056000600660006002815260200190815260200160002060009054906101000a900473ffffffffffffffffffffffffffffffffffffffff1673ffffffffffffffffffffffffffffffffffffffff1673ffffffffffffffffffffffffffffffffffffffff1681526020019081526020016000206002015460028001600082825401925050819055506110ea565b7f53434953534f525300000000000000000000000000000000000000000000000060001916816000191614156110e95760056000600660006002815260200190815260200160002060009054906101000a900473ffffffffffffffffffffffffffffffffffffffff1673ffffffffffffffffffffffffffffffffffffffff1673ffffffffffffffffffffffffffffffffffffffff16815260200190815260200160002060026000820160009054906101000a900473ffffffffffffffffffffffffffffffffffffffff168160000160006101000a81548173ffffffffffffffffffffffffffffffffffffffff021916908373ffffffffffffffffffffffffffffffffffffffff160217905550600182015481600101906000191690556002820154816002015590505060056000600660006001815260200190815260200160002060009054906101000a900473ffffffffffffffffffffffffffffffffffffffff1673ffffffffffffffffffffffffffffffffffffffff1673ffffffffffffffffffffffffffffffffffffffff1681526020019081526020016000206002015460028001600082825401925050819055505b5b61148a565b7f53434953534f52530000000000000000000000000000000000000000000000006000191682600019161415611489577f524f434b0000000000000000000000000000000000000000000000000000000060001916816000191614156112d55760056000600660006002815260200190815260200160002060009054906101000a900473ffffffffffffffffffffffffffffffffffffffff1673ffffffffffffffffffffffffffffffffffffffff1673ffffffffffffffffffffffffffffffffffffffff16815260200190815260200160002060026000820160009054906101000a900473ffffffffffffffffffffffffffffffffffffffff168160000160006101000a81548173ffffffffffffffffffffffffffffffffffffffff021916908373ffffffffffffffffffffffffffffffffffffffff160217905550600182015481600101906000191690556002820154816002015590505060056000600660006001815260200190815260200160002060009054906101000a900473ffffffffffffffffffffffffffffffffffffffff1673ffffffffffffffffffffffffffffffffffffffff1673ffffffffffffffffffffffffffffffffffffffff168152602001908152602001600020600201546002800160008282540192505081905550611488565b7f504150455200000000000000000000000000000000000000000000000000000060001916816000191614156114875760056000600660006001815260200190815260200160002060009054906101000a900473ffffffffffffffffffffffffffffffffffffffff1673ffffffffffffffffffffffffffffffffffffffff1673ffffffffffffffffffffffffffffffffffffffff16815260200190815260200160002060026000820160009054906101000a900473ffffffffffffffffffffffffffffffffffffffff168160000160006101000a81548173ffffffffffffffffffffffffffffffffffffffff021916908373ffffffffffffffffffffffffffffffffffffffff160217905550600182015481600101906000191690556002820154816002015590505060056000600660006002815260200190815260200160002060009054906101000a900473ffffffffffffffffffffffffffffffffffffffff1673ffffffffffffffffffffffffffffffffffffffff1673ffffffffffffffffffffffffffffffffffffffff1681526020019081526020016000206002015460028001600082825401925050819055505b5b5b5b5b5050565b7f53434953534f525300000000000000000000000000000000000000000000000081565b7f524f434b0000000000000000000000000000000000000000000000000000000081565b7f504150455200000000000000000000000000000000000000000000000000000081565b60056020528060005260406000206000915090508060000160009054906101000a900473ffffffffffffffffffffffffffffffffffffffff16908060010154908060020154905083565b60003373ffffffffffffffffffffffffffffffffffffffff16600260000160009054906101000a900473ffffffffffffffffffffffffffffffffffffffff1673ffffffffffffffffffffffffffffffffffffffff161415156115a657600080fd5b600060028001541115156115b957600080fd5b60028001549050600060028001819055507fee0190091274dfba5603fd0b1508f6a23a1f85a80a98ad95b9a64e7d3790e9643382604051808373ffffffffffffffffffffffffffffffffffffffff1673ffffffffffffffffffffffffffffffffffffffff1681526020018281526020019250505060405180910390a13373ffffffffffffffffffffffffffffffffffffffff166108fc829081150290604051600060405180830381858888f19350505050151561167557600080fd5b50565b60066020528060005260406000206000915054906101000a900473ffffffffffffffffffffffffffffffffffffffff1681565b60007f524f434b00000000000000000000000000000000000000000000000000000000600019168260001916148061170a57507f5041504552000000000000000000000000000000000000000000000000000000600019168260001916145b8061173c57507f53434953534f5253000000000000000000000000000000000000000000000000600019168260001916145b1561174a576001905061174f565b600090505b919050565b606060405190810160405280600073ffffffffffffffffffffffffffffffffffffffff168152602001600080191681526020016000815250905600a165627a7a72305820f7cf0550b46485109af15151370260d18f012352bea9da9ef91165fcf8798df60029",
  "source": "pragma solidity ^0.4.17;\n\nimport \"./Ownable.sol\";\n\ncontract RockPaperScissor is Ownable {\n    \n\n    struct Player {\n        address playerAddress;\n        bytes32 bet;\n        uint betAmount;\n    }\n\n    bytes32  public constant ROCK = \"ROCK\";\n    bytes32  public constant PAPER = \"PAPER\";\n    bytes32  public constant SCISSORS = \"SCISSORS\";\n    uint public numberOfPlayers;\n    Player public winningPlayer;\n    mapping(address => Player) public playerBets;\n    mapping(uint => address) public players;\n\n    event LogCreatePlayer(address from, uint amountSent);\n    event LogBidPlace(address from, bytes32 bidValue);\n    event LogWinnerNotification(address winner,uint amountWon);\n    \n\n\n//Function to create player .it only allows to create two players and restricts already registered player.\n\n    function createPlayer() public payable{\n        require(msg.sender!=owner);\n        require(playerBets[msg.sender].playerAddress == address(0));\n        require(numberOfPlayers<2);\n\n        Player memory player;\n        player.playerAddress = msg.sender;\n        player.betAmount = msg.value;\n        playerBets[msg.sender] = player;\n        numberOfPlayers++;\n        players[numberOfPlayers] = msg.sender;\n        LogCreatePlayer(msg.sender,msg.value);\n    }\n\n//Used to play bids. It verifies that the address from which bid comes in already exisits or not.\n    function placeBid(bytes32 bidValue) public returns(bool success){\n        require(playerBets[msg.sender].playerAddress == msg.sender);\n        require(bidValue!=bytes32(0));\n        require(checkIfbidValueExists(bidValue));\n        \n    \n        playerBets[msg.sender].bet = bidValue;\n        LogBidPlace(msg.sender,bidValue);\n        return true;\n\n    }\n\n//Once both players are registered. The owner can start the play and decide the winner.\n\n    function play() public onlyOwner {\n      \n        bytes32 player1Bet = playerBets[players[1]].bet;\n        bytes32 player2Bet = playerBets[players[2]].bet;\n\n        if(player1Bet == ROCK){\n            if(player2Bet == PAPER) {\n                winningPlayer = playerBets[players[2]];\n                winningPlayer.betAmount += playerBets[players[1]].betAmount;\n            }\n            else if(player2Bet == SCISSORS) {\n                winningPlayer = playerBets[players[1]];\n                winningPlayer.betAmount += playerBets[players[2]].betAmount;\n            }\n        }\n        else if(player1Bet == PAPER) {\n            if(player2Bet == ROCK) {\n                winningPlayer = playerBets[players[1]];\n                winningPlayer.betAmount += playerBets[players[2]].betAmount;\n            }\n            else if(player2Bet == SCISSORS) {\n                winningPlayer = playerBets[players[2]];\n                winningPlayer.betAmount += playerBets[players[1]].betAmount;\n            }\n        }\n        else if(player1Bet == SCISSORS) {\n            if(player2Bet == ROCK) {\n                winningPlayer = playerBets[players[2]];\n                winningPlayer.betAmount += playerBets[players[1]].betAmount;\n            }\n            else if(player2Bet == PAPER) {\n                winningPlayer = playerBets[players[1]];\n                winningPlayer.betAmount += playerBets[players[2]].betAmount;\n            }\n        }\n\n    }\n\n//Owner can withdraw the funds once he is notified as winner.\n    function winnerWithdraw() public {\n        require(winningPlayer.playerAddress == msg.sender);\n        require(winningPlayer.betAmount>0);\n\n        uint amount = winningPlayer.betAmount;\n        winningPlayer.betAmount = 0;\n        LogWinnerNotification(msg.sender,amount);\n        msg.sender.transfer(amount);\n    }\n\n    function checkIfbidValueExists(bytes32 bidValue) private pure returns(bool exists) {\n\n         //tried somthings like\n        if(bidValue == ROCK || bidValue == PAPER || bidValue == SCISSORS){\n            return true;\n        }\n        else{\n            return false;\n        }\n    }\n\n}",
  "sourcePath": "/home/rviparla/DAPPS/Project3/contracts/RockPaperScissor.sol",
  "compiler": {
    "name": "solc",
    "version": "0.4.19+commit.c4cbbb05.Emscripten.clang"
  },
  "schemaVersion": "2.0.0",
  "updatedAt": "2018-03-22T19:20:34.252Z"
}