{
  "contractName": "RockPaperScissor",
  "abi": [
    {
      "constant": false,
      "inputs": [
        {
          "name": "newOwner",
          "type": "address"
        }
      ],
      "name": "setOwner",
      "outputs": [
        {
          "name": "res",
          "type": "bool"
        }
      ],
      "payable": false,
      "stateMutability": "nonpayable",
      "type": "function"
    },
    {
      "constant": true,
      "inputs": [],
      "name": "isOn",
      "outputs": [
        {
          "name": "",
          "type": "bool"
        }
      ],
      "payable": false,
      "stateMutability": "view",
      "type": "function"
    },
    {
      "constant": true,
      "inputs": [],
      "name": "winningPlayer",
      "outputs": [
        {
          "name": "playerAddress",
          "type": "address"
        },
        {
          "name": "bet",
          "type": "bytes8"
        },
        {
          "name": "betAmount",
          "type": "uint256"
        },
        {
          "name": "hashValue",
          "type": "bytes32"
        },
        {
          "name": "isCommitted",
          "type": "bool"
        }
      ],
      "payable": false,
      "stateMutability": "view",
      "type": "function"
    },
    {
      "constant": true,
      "inputs": [],
      "name": "numberOfPlayers",
      "outputs": [
        {
          "name": "",
          "type": "uint256"
        }
      ],
      "payable": false,
      "stateMutability": "view",
      "type": "function"
    },
    {
      "constant": true,
      "inputs": [],
      "name": "owner",
      "outputs": [
        {
          "name": "",
          "type": "address"
        }
      ],
      "payable": false,
      "stateMutability": "view",
      "type": "function"
    },
    {
      "constant": true,
      "inputs": [],
      "name": "SCISSORS",
      "outputs": [
        {
          "name": "",
          "type": "bytes8"
        }
      ],
      "payable": false,
      "stateMutability": "view",
      "type": "function"
    },
    {
      "constant": true,
      "inputs": [],
      "name": "ROCK",
      "outputs": [
        {
          "name": "",
          "type": "bytes8"
        }
      ],
      "payable": false,
      "stateMutability": "view",
      "type": "function"
    },
    {
      "constant": true,
      "inputs": [],
      "name": "PAPER",
      "outputs": [
        {
          "name": "",
          "type": "bytes8"
        }
      ],
      "payable": false,
      "stateMutability": "view",
      "type": "function"
    },
    {
      "constant": true,
      "inputs": [
        {
          "name": "",
          "type": "address"
        }
      ],
      "name": "playerBets",
      "outputs": [
        {
          "name": "playerAddress",
          "type": "address"
        },
        {
          "name": "bet",
          "type": "bytes8"
        },
        {
          "name": "betAmount",
          "type": "uint256"
        },
        {
          "name": "hashValue",
          "type": "bytes32"
        },
        {
          "name": "isCommitted",
          "type": "bool"
        }
      ],
      "payable": false,
      "stateMutability": "view",
      "type": "function"
    },
    {
      "constant": false,
      "inputs": [
        {
          "name": "on",
          "type": "bool"
        }
      ],
      "name": "startOrStop",
      "outputs": [
        {
          "name": "success",
          "type": "bool"
        }
      ],
      "payable": false,
      "stateMutability": "nonpayable",
      "type": "function"
    },
    {
      "constant": true,
      "inputs": [
        {
          "name": "",
          "type": "uint256"
        }
      ],
      "name": "players",
      "outputs": [
        {
          "name": "",
          "type": "address"
        }
      ],
      "payable": false,
      "stateMutability": "view",
      "type": "function"
    },
    {
      "anonymous": false,
      "inputs": [
        {
          "indexed": false,
          "name": "from",
          "type": "address"
        },
        {
          "indexed": false,
          "name": "amountSent",
          "type": "uint256"
        },
        {
          "indexed": false,
          "name": "committedHash",
          "type": "bytes32"
        }
      ],
      "name": "LogCreatePlayer",
      "type": "event"
    },
    {
      "anonymous": false,
      "inputs": [
        {
          "indexed": false,
          "name": "from",
          "type": "address"
        },
        {
          "indexed": false,
          "name": "bidValue",
          "type": "bytes8"
        },
        {
          "indexed": false,
          "name": "committedHash",
          "type": "bytes32"
        }
      ],
      "name": "LogBidPlace",
      "type": "event"
    },
    {
      "anonymous": false,
      "inputs": [
        {
          "indexed": false,
          "name": "winner",
          "type": "address"
        },
        {
          "indexed": false,
          "name": "amountWon",
          "type": "uint256"
        }
      ],
      "name": "LogWinnerNotification",
      "type": "event"
    },
    {
      "constant": false,
      "inputs": [
        {
          "name": "committedHash",
          "type": "bytes32"
        }
      ],
      "name": "createPlayer",
      "outputs": [],
      "payable": true,
      "stateMutability": "payable",
      "type": "function"
    },
    {
      "constant": false,
      "inputs": [
        {
          "name": "bidValue",
          "type": "bytes8"
        },
        {
          "name": "committedHash",
          "type": "bytes32"
        }
      ],
      "name": "placeBid",
      "outputs": [
        {
          "name": "success",
          "type": "bool"
        }
      ],
      "payable": false,
      "stateMutability": "nonpayable",
      "type": "function"
    },
    {
      "constant": true,
      "inputs": [
        {
          "name": "bidValue",
          "type": "bytes32"
        },
        {
          "name": "uniqueValue",
          "type": "bytes32"
        }
      ],
      "name": "getHash",
      "outputs": [
        {
          "name": "hash",
          "type": "bytes32"
        }
      ],
      "payable": false,
      "stateMutability": "pure",
      "type": "function"
    },
    {
      "constant": false,
      "inputs": [],
      "name": "play",
      "outputs": [],
      "payable": false,
      "stateMutability": "nonpayable",
      "type": "function"
    },
    {
      "constant": false,
      "inputs": [],
      "name": "winnerWithdraw",
      "outputs": [],
      "payable": false,
      "stateMutability": "nonpayable",
      "type": "function"
    }
  ],
  "bytecode": "0x6060604052336000806101000a81548173ffffffffffffffffffffffffffffffffffffffff021916908373ffffffffffffffffffffffffffffffffffffffff1602179055506001600060146101000a81548160ff02191690831515021790555061245a8061006e6000396000f3006060604052600436106100e6576000357c0100000000000000000000000000000000000000000000000000000000900463ffffffff16806313af4035146100eb578063175bbecf1461013c578063438adb51146101695780635ad39846146101cc57806369b77d271461027f5780636f4bda171461029b57806380c9597f146102c45780638da5cb5b1461031457806393e84cd914610369578063b357a0281461037e578063b93e0e39146103dd578063c44d6f871461043c578063c7aa327b1461049b578063e10b650b14610572578063eddd8a6214610587578063f71d96cb146105c4575b600080fd5b34156100f657600080fd5b610122600480803573ffffffffffffffffffffffffffffffffffffffff16906020019091905050610627565b604051808215151515815260200191505060405180910390f35b341561014757600080fd5b61014f6106cd565b604051808215151515815260200191505060405180910390f35b341561017457600080fd5b6101b2600480803577ffffffffffffffffffffffffffffffffffffffffffffffff1916906020019091908035600019169060200190919050506106e0565b604051808215151515815260200191505060405180910390f35b34156101d757600080fd5b6101df6109cf565b604051808673ffffffffffffffffffffffffffffffffffffffff1673ffffffffffffffffffffffffffffffffffffffff1681526020018577ffffffffffffffffffffffffffffffffffffffffffffffff191677ffffffffffffffffffffffffffffffffffffffffffffffff191681526020018481526020018360001916600019168152602001821515151581526020019550505050505060405180910390f35b610299600480803560001916906020019091905050610a45565b005b34156102a657600080fd5b6102ae610db9565b6040518082815260200191505060405180910390f35b34156102cf57600080fd5b6102f660048080356000191690602001909190803560001916906020019091905050610dbf565b60405180826000191660001916815260200191505060405180910390f35b341561031f57600080fd5b610327610df7565b604051808273ffffffffffffffffffffffffffffffffffffffff1673ffffffffffffffffffffffffffffffffffffffff16815260200191505060405180910390f35b341561037457600080fd5b61037c610e1c565b005b341561038957600080fd5b610391611fdb565b604051808277ffffffffffffffffffffffffffffffffffffffffffffffff191677ffffffffffffffffffffffffffffffffffffffffffffffff1916815260200191505060405180910390f35b34156103e857600080fd5b6103f0611fff565b604051808277ffffffffffffffffffffffffffffffffffffffffffffffff191677ffffffffffffffffffffffffffffffffffffffffffffffff1916815260200191505060405180910390f35b341561044757600080fd5b61044f612023565b604051808277ffffffffffffffffffffffffffffffffffffffffffffffff191677ffffffffffffffffffffffffffffffffffffffffffffffff1916815260200191505060405180910390f35b34156104a657600080fd5b6104d2600480803573ffffffffffffffffffffffffffffffffffffffff16906020019091905050612047565b604051808673ffffffffffffffffffffffffffffffffffffffff1673ffffffffffffffffffffffffffffffffffffffff1681526020018577ffffffffffffffffffffffffffffffffffffffffffffffff191677ffffffffffffffffffffffffffffffffffffffffffffffff191681526020018481526020018360001916600019168152602001821515151581526020019550505050505060405180910390f35b341561057d57600080fd5b6105856120cf565b005b341561059257600080fd5b6105aa60048080351515906020019091905050612227565b604051808215151515815260200191505060405180910390f35b34156105cf57600080fd5b6105e560048080359060200190919050506122a7565b604051808273ffffffffffffffffffffffffffffffffffffffff1673ffffffffffffffffffffffffffffffffffffffff16815260200191505060405180910390f35b60008060009054906101000a900473ffffffffffffffffffffffffffffffffffffffff1673ffffffffffffffffffffffffffffffffffffffff163373ffffffffffffffffffffffffffffffffffffffff1614151561068457600080fd5b816000806101000a81548173ffffffffffffffffffffffffffffffffffffffff021916908373ffffffffffffffffffffffffffffffffffffffff16021790555060019050919050565b600060149054906101000a900460ff1681565b600060011515600060149054906101000a900460ff16151514151561070457600080fd5b600260015414151561071557600080fd5b3373ffffffffffffffffffffffffffffffffffffffff16600660003373ffffffffffffffffffffffffffffffffffffffff1673ffffffffffffffffffffffffffffffffffffffff16815260200190815260200160002060000160009054906101000a900473ffffffffffffffffffffffffffffffffffffffff1673ffffffffffffffffffffffffffffffffffffffff161415156107b157600080fd5b8160001916600660003373ffffffffffffffffffffffffffffffffffffffff1673ffffffffffffffffffffffffffffffffffffffff168152602001908152602001600020600201546000191614151561080957600080fd5b600078010000000000000000000000000000000000000000000000000277ffffffffffffffffffffffffffffffffffffffffffffffff19168377ffffffffffffffffffffffffffffffffffffffffffffffff19161415151561086a57600080fd5b61088e8377ffffffffffffffffffffffffffffffffffffffffffffffff19166122da565b151561089957600080fd5b82600660003373ffffffffffffffffffffffffffffffffffffffff1673ffffffffffffffffffffffffffffffffffffffff16815260200190815260200160002060000160146101000a81548167ffffffffffffffff02191690837801000000000000000000000000000000000000000000000000900402179055507fc061f7d05e99d706886409d3472ee3118102126253ebdc09505f66cc22de9a38338484604051808473ffffffffffffffffffffffffffffffffffffffff1673ffffffffffffffffffffffffffffffffffffffff1681526020018377ffffffffffffffffffffffffffffffffffffffffffffffff191677ffffffffffffffffffffffffffffffffffffffffffffffff191681526020018260001916600019168152602001935050505060405180910390a16001905092915050565b60028060000160009054906101000a900473ffffffffffffffffffffffffffffffffffffffff16908060000160149054906101000a9004780100000000000000000000000000000000000000000000000002908060010154908060020154908060030160009054906101000a900460ff16905085565b610a4d6123c8565b60011515600060149054906101000a900460ff161515141515610a6f57600080fd5b6000809054906101000a900473ffffffffffffffffffffffffffffffffffffffff1673ffffffffffffffffffffffffffffffffffffffff163373ffffffffffffffffffffffffffffffffffffffff1614151515610acb57600080fd5b600073ffffffffffffffffffffffffffffffffffffffff16600660003373ffffffffffffffffffffffffffffffffffffffff1673ffffffffffffffffffffffffffffffffffffffff16815260200190815260200160002060000160009054906101000a900473ffffffffffffffffffffffffffffffffffffffff1673ffffffffffffffffffffffffffffffffffffffff16141515610b6857600080fd5b6002600154101515610b7957600080fd5b33816000019073ffffffffffffffffffffffffffffffffffffffff16908173ffffffffffffffffffffffffffffffffffffffff168152505034816040018181525050818160600190600019169081600019168152505080600660003373ffffffffffffffffffffffffffffffffffffffff1673ffffffffffffffffffffffffffffffffffffffff16815260200190815260200160002060008201518160000160006101000a81548173ffffffffffffffffffffffffffffffffffffffff021916908373ffffffffffffffffffffffffffffffffffffffff16021790555060208201518160000160146101000a81548167ffffffffffffffff0219169083780100000000000000000000000000000000000000000000000090040217905550604082015181600101556060820151816002019060001916905560808201518160030160006101000a81548160ff0219169083151502179055509050506001600081548092919060010191905055503360076000600154815260200190815260200160002060006101000a81548173ffffffffffffffffffffffffffffffffffffffff021916908373ffffffffffffffffffffffffffffffffffffffff1602179055507fe8207420d5957a2b7caa0eb8b0c9209d7332e66f0cfdf4afaeaa78b3c2182e0f333484604051808473ffffffffffffffffffffffffffffffffffffffff1673ffffffffffffffffffffffffffffffffffffffff1681526020018381526020018260001916600019168152602001935050505060405180910390a15050565b60015481565b600082826040518083600019166000191681526020018260001916600019168152602001925050506040518091039020905092915050565b6000809054906101000a900473ffffffffffffffffffffffffffffffffffffffff1681565b6000806000809054906101000a900473ffffffffffffffffffffffffffffffffffffffff1673ffffffffffffffffffffffffffffffffffffffff163373ffffffffffffffffffffffffffffffffffffffff16141515610e7a57600080fd5b60011515600060149054906101000a900460ff161515141515610e9c57600080fd5b6002600154141515610ead57600080fd5b60066000600760006001815260200190815260200160002060009054906101000a900473ffffffffffffffffffffffffffffffffffffffff1673ffffffffffffffffffffffffffffffffffffffff1673ffffffffffffffffffffffffffffffffffffffff16815260200190815260200160002060000160149054906101000a9004780100000000000000000000000000000000000000000000000002915060066000600760006002815260200190815260200160002060009054906101000a900473ffffffffffffffffffffffffffffffffffffffff1673ffffffffffffffffffffffffffffffffffffffff1673ffffffffffffffffffffffffffffffffffffffff16815260200190815260200160002060000160149054906101000a900478010000000000000000000000000000000000000000000000000290507f524f434b0000000000000000000000000000000000000000000000000000000077ffffffffffffffffffffffffffffffffffffffffffffffff19168277ffffffffffffffffffffffffffffffffffffffffffffffff19161415611539577f504150455200000000000000000000000000000000000000000000000000000077ffffffffffffffffffffffffffffffffffffffffffffffff19168177ffffffffffffffffffffffffffffffffffffffffffffffff191614156112bf5760066000600760006002815260200190815260200160002060009054906101000a900473ffffffffffffffffffffffffffffffffffffffff1673ffffffffffffffffffffffffffffffffffffffff1673ffffffffffffffffffffffffffffffffffffffff16815260200190815260200160002060026000820160009054906101000a900473ffffffffffffffffffffffffffffffffffffffff168160000160006101000a81548173ffffffffffffffffffffffffffffffffffffffff021916908373ffffffffffffffffffffffffffffffffffffffff1602179055506000820160149054906101000a90047801000000000000000000000000000000000000000000000000028160000160146101000a81548167ffffffffffffffff021916908378010000000000000000000000000000000000000000000000009004021790555060018201548160010155600282015481600201906000191690556003820160009054906101000a900460ff168160030160006101000a81548160ff02191690831515021790555090505060066000600760006001815260200190815260200160002060009054906101000a900473ffffffffffffffffffffffffffffffffffffffff1673ffffffffffffffffffffffffffffffffffffffff1673ffffffffffffffffffffffffffffffffffffffff16815260200190815260200160002060010154600260010160008282540192505081905550611534565b7f53434953534f525300000000000000000000000000000000000000000000000077ffffffffffffffffffffffffffffffffffffffffffffffff19168177ffffffffffffffffffffffffffffffffffffffffffffffff191614156115335760066000600760006001815260200190815260200160002060009054906101000a900473ffffffffffffffffffffffffffffffffffffffff1673ffffffffffffffffffffffffffffffffffffffff1673ffffffffffffffffffffffffffffffffffffffff16815260200190815260200160002060026000820160009054906101000a900473ffffffffffffffffffffffffffffffffffffffff168160000160006101000a81548173ffffffffffffffffffffffffffffffffffffffff021916908373ffffffffffffffffffffffffffffffffffffffff1602179055506000820160149054906101000a90047801000000000000000000000000000000000000000000000000028160000160146101000a81548167ffffffffffffffff021916908378010000000000000000000000000000000000000000000000009004021790555060018201548160010155600282015481600201906000191690556003820160009054906101000a900460ff168160030160006101000a81548160ff02191690831515021790555090505060066000600760006002815260200190815260200160002060009054906101000a900473ffffffffffffffffffffffffffffffffffffffff1673ffffffffffffffffffffffffffffffffffffffff1673ffffffffffffffffffffffffffffffffffffffff168152602001908152602001600020600101546002600101600082825401925050819055505b5b611fd7565b7f504150455200000000000000000000000000000000000000000000000000000077ffffffffffffffffffffffffffffffffffffffffffffffff19168277ffffffffffffffffffffffffffffffffffffffffffffffff19161415611a89577f524f434b0000000000000000000000000000000000000000000000000000000077ffffffffffffffffffffffffffffffffffffffffffffffff19168177ffffffffffffffffffffffffffffffffffffffffffffffff1916141561180f5760066000600760006001815260200190815260200160002060009054906101000a900473ffffffffffffffffffffffffffffffffffffffff1673ffffffffffffffffffffffffffffffffffffffff1673ffffffffffffffffffffffffffffffffffffffff16815260200190815260200160002060026000820160009054906101000a900473ffffffffffffffffffffffffffffffffffffffff168160000160006101000a81548173ffffffffffffffffffffffffffffffffffffffff021916908373ffffffffffffffffffffffffffffffffffffffff1602179055506000820160149054906101000a90047801000000000000000000000000000000000000000000000000028160000160146101000a81548167ffffffffffffffff021916908378010000000000000000000000000000000000000000000000009004021790555060018201548160010155600282015481600201906000191690556003820160009054906101000a900460ff168160030160006101000a81548160ff02191690831515021790555090505060066000600760006002815260200190815260200160002060009054906101000a900473ffffffffffffffffffffffffffffffffffffffff1673ffffffffffffffffffffffffffffffffffffffff1673ffffffffffffffffffffffffffffffffffffffff16815260200190815260200160002060010154600260010160008282540192505081905550611a84565b7f53434953534f525300000000000000000000000000000000000000000000000077ffffffffffffffffffffffffffffffffffffffffffffffff19168177ffffffffffffffffffffffffffffffffffffffffffffffff19161415611a835760066000600760006002815260200190815260200160002060009054906101000a900473ffffffffffffffffffffffffffffffffffffffff1673ffffffffffffffffffffffffffffffffffffffff1673ffffffffffffffffffffffffffffffffffffffff16815260200190815260200160002060026000820160009054906101000a900473ffffffffffffffffffffffffffffffffffffffff168160000160006101000a81548173ffffffffffffffffffffffffffffffffffffffff021916908373ffffffffffffffffffffffffffffffffffffffff1602179055506000820160149054906101000a90047801000000000000000000000000000000000000000000000000028160000160146101000a81548167ffffffffffffffff021916908378010000000000000000000000000000000000000000000000009004021790555060018201548160010155600282015481600201906000191690556003820160009054906101000a900460ff168160030160006101000a81548160ff02191690831515021790555090505060066000600760006001815260200190815260200160002060009054906101000a900473ffffffffffffffffffffffffffffffffffffffff1673ffffffffffffffffffffffffffffffffffffffff1673ffffffffffffffffffffffffffffffffffffffff168152602001908152602001600020600101546002600101600082825401925050819055505b5b611fd6565b7f53434953534f525300000000000000000000000000000000000000000000000077ffffffffffffffffffffffffffffffffffffffffffffffff19168277ffffffffffffffffffffffffffffffffffffffffffffffff19161415611fd5577f524f434b0000000000000000000000000000000000000000000000000000000077ffffffffffffffffffffffffffffffffffffffffffffffff19168177ffffffffffffffffffffffffffffffffffffffffffffffff19161415611d5f5760066000600760006002815260200190815260200160002060009054906101000a900473ffffffffffffffffffffffffffffffffffffffff1673ffffffffffffffffffffffffffffffffffffffff1673ffffffffffffffffffffffffffffffffffffffff16815260200190815260200160002060026000820160009054906101000a900473ffffffffffffffffffffffffffffffffffffffff168160000160006101000a81548173ffffffffffffffffffffffffffffffffffffffff021916908373ffffffffffffffffffffffffffffffffffffffff1602179055506000820160149054906101000a90047801000000000000000000000000000000000000000000000000028160000160146101000a81548167ffffffffffffffff021916908378010000000000000000000000000000000000000000000000009004021790555060018201548160010155600282015481600201906000191690556003820160009054906101000a900460ff168160030160006101000a81548160ff02191690831515021790555090505060066000600760006001815260200190815260200160002060009054906101000a900473ffffffffffffffffffffffffffffffffffffffff1673ffffffffffffffffffffffffffffffffffffffff1673ffffffffffffffffffffffffffffffffffffffff16815260200190815260200160002060010154600260010160008282540192505081905550611fd4565b7f504150455200000000000000000000000000000000000000000000000000000077ffffffffffffffffffffffffffffffffffffffffffffffff19168177ffffffffffffffffffffffffffffffffffffffffffffffff19161415611fd35760066000600760006001815260200190815260200160002060009054906101000a900473ffffffffffffffffffffffffffffffffffffffff1673ffffffffffffffffffffffffffffffffffffffff1673ffffffffffffffffffffffffffffffffffffffff16815260200190815260200160002060026000820160009054906101000a900473ffffffffffffffffffffffffffffffffffffffff168160000160006101000a81548173ffffffffffffffffffffffffffffffffffffffff021916908373ffffffffffffffffffffffffffffffffffffffff1602179055506000820160149054906101000a90047801000000000000000000000000000000000000000000000000028160000160146101000a81548167ffffffffffffffff021916908378010000000000000000000000000000000000000000000000009004021790555060018201548160010155600282015481600201906000191690556003820160009054906101000a900460ff168160030160006101000a81548160ff02191690831515021790555090505060066000600760006002815260200190815260200160002060009054906101000a900473ffffffffffffffffffffffffffffffffffffffff1673ffffffffffffffffffffffffffffffffffffffff1673ffffffffffffffffffffffffffffffffffffffff168152602001908152602001600020600101546002600101600082825401925050819055505b5b5b5b5b5050565b7f53434953534f525300000000000000000000000000000000000000000000000081565b7f524f434b0000000000000000000000000000000000000000000000000000000081565b7f504150455200000000000000000000000000000000000000000000000000000081565b60066020528060005260406000206000915090508060000160009054906101000a900473ffffffffffffffffffffffffffffffffffffffff16908060000160149054906101000a9004780100000000000000000000000000000000000000000000000002908060010154908060020154908060030160009054906101000a900460ff16905085565b600060011515600060149054906101000a900460ff1615151415156120f357600080fd5b3373ffffffffffffffffffffffffffffffffffffffff16600260000160009054906101000a900473ffffffffffffffffffffffffffffffffffffffff1673ffffffffffffffffffffffffffffffffffffffff1614151561215257600080fd5b600060026001015411151561216657600080fd5b600260010154905060006002600101819055507fee0190091274dfba5603fd0b1508f6a23a1f85a80a98ad95b9a64e7d3790e9643382604051808373ffffffffffffffffffffffffffffffffffffffff1673ffffffffffffffffffffffffffffffffffffffff1681526020018281526020019250505060405180910390a13373ffffffffffffffffffffffffffffffffffffffff166108fc829081150290604051600060405180830381858888f19350505050151561222457600080fd5b50565b60008060009054906101000a900473ffffffffffffffffffffffffffffffffffffffff1673ffffffffffffffffffffffffffffffffffffffff163373ffffffffffffffffffffffffffffffffffffffff1614151561228457600080fd5b81600060146101000a81548160ff02191690831515021790555060019050919050565b60076020528060005260406000206000915054906101000a900473ffffffffffffffffffffffffffffffffffffffff1681565b60007f524f434b0000000000000000000000000000000000000000000000000000000077ffffffffffffffffffffffffffffffffffffffffffffffff19168260001916148061236757507f504150455200000000000000000000000000000000000000000000000000000077ffffffffffffffffffffffffffffffffffffffffffffffff19168260001916145b806123b057507f53434953534f525300000000000000000000000000000000000000000000000077ffffffffffffffffffffffffffffffffffffffffffffffff19168260001916145b156123be57600190506123c3565b600090505b919050565b60a060405190810160405280600073ffffffffffffffffffffffffffffffffffffffff168152602001600077ffffffffffffffffffffffffffffffffffffffffffffffff19168152602001600081526020016000801916815260200160001515815250905600a165627a7a723058202709616dffc35a0a972cc4c01588412894a35f163e5696caa2c28fbd2cce98bf0029",
  "source": "pragma solidity ^0.4.17;\n\nimport \"./Stoppable.sol\";\n\ncontract RockPaperScissor is Stoppable {\n    \n    struct Player {\n        address playerAddress;\n        bytes8 bet;\n        uint betAmount;\n        bytes32 hashValue;\n        bool isCommitted;      \n    }\n\n    bytes8  public constant ROCK = \"ROCK\";\n    bytes8  public constant PAPER = \"PAPER\";\n    bytes8  public constant SCISSORS = \"SCISSORS\";\n    uint public numberOfPlayers;\n    Player public winningPlayer;\n    mapping(address => Player) public playerBets;\n    mapping(uint => address) public players;\n\n    event LogCreatePlayer(address from, uint amountSent, bytes32 committedHash);\n    event LogBidPlace(address from, bytes8 bidValue, bytes32 committedHash);\n    event LogWinnerNotification(address winner, uint amountWon);\n    \n\n\n//Function to create player .it only allows to create two players and restricts already registered player.\n\n    function createPlayer(bytes32 committedHash) public isRunning payable {\n        require(msg.sender!=owner);\n        require(playerBets[msg.sender].playerAddress == address(0));\n        require(numberOfPlayers < 2);\n\n        Player memory player;\n        player.playerAddress = msg.sender;\n        player.betAmount = msg.value;\n        player.hashValue = committedHash;\n        playerBets[msg.sender] = player;\n        numberOfPlayers++;\n        players[numberOfPlayers] = msg.sender;\n        LogCreatePlayer(msg.sender, msg.value, committedHash);\n    }\n\n//Used to play bids. It verifies that the address from which bid comes in already exisits or not.\n    function placeBid(bytes8 bidValue, bytes32 committedHash) public isRunning returns(bool success) {\n        require(numberOfPlayers == 2);\n        require(playerBets[msg.sender].playerAddress == msg.sender);\n        require(playerBets[msg.sender].hashValue == committedHash);\n        require(bidValue != bytes8(0));\n        require(checkIfbidValueExists(bidValue));\n        playerBets[msg.sender].bet = bidValue;\n        LogBidPlace(msg.sender, bidValue, committedHash);\n        return true;\n\n    }\n\n// //Get HashValue \n    function getHash(bytes32 bidValue, bytes32 uniqueValue) public pure returns(bytes32 hash) {\n        return keccak256(bidValue, uniqueValue);\n\n    }\n\n\n//Once both players are registered. The owner can start the play and decide the winner.\n\n    function play() public onlyOwner isRunning {\n        require(numberOfPlayers == 2);\n\n        bytes8 player1Bet = playerBets[players[1]].bet;\n        bytes8 player2Bet = playerBets[players[2]].bet;\n\n        if (player1Bet == ROCK) {\n            if (player2Bet == PAPER) {\n                winningPlayer = playerBets[players[2]];\n                winningPlayer.betAmount += playerBets[players[1]].betAmount;\n            }else if (player2Bet == SCISSORS) {\n                winningPlayer = playerBets[players[1]];\n                winningPlayer.betAmount += playerBets[players[2]].betAmount;\n            }\n        }else if (player1Bet == PAPER) {\n            if (player2Bet == ROCK) {\n                winningPlayer = playerBets[players[1]];\n                winningPlayer.betAmount += playerBets[players[2]].betAmount;\n            }else if (player2Bet == SCISSORS) {\n                winningPlayer = playerBets[players[2]];\n                winningPlayer.betAmount += playerBets[players[1]].betAmount;\n            }\n        }else if (player1Bet == SCISSORS) {\n            if (player2Bet == ROCK) {\n                winningPlayer = playerBets[players[2]];\n                winningPlayer.betAmount += playerBets[players[1]].betAmount;\n            }else if (player2Bet == PAPER) {\n                winningPlayer = playerBets[players[1]];\n                winningPlayer.betAmount += playerBets[players[2]].betAmount;\n            }\n        }\n\n    }\n\n//Owner can withdraw the funds once he is notified as winner.\n    function winnerWithdraw() public isRunning {\n        require(winningPlayer.playerAddress == msg.sender);\n        require(winningPlayer.betAmount>0);\n\n        uint amount = winningPlayer.betAmount;\n        winningPlayer.betAmount = 0;\n        LogWinnerNotification(msg.sender, amount);\n        msg.sender.transfer(amount);\n    }\n\n    function checkIfbidValueExists(bytes32 bidValue) private pure returns(bool exists) {\n\n         //tried somthings like\n        if (bidValue == ROCK || bidValue == PAPER || bidValue == SCISSORS) {\n            return true;\n        }else {\n            return false;\n        }\n    }\n\n}",
  "sourcePath": "/Users/rviparla/Ethereum/Prject3/contracts/RockPaperScissor.sol",
  "compiler": {
    "name": "solc",
    "version": "0.4.19+commit.c4cbbb05.Emscripten.clang"
  },
  "schemaVersion": "2.0.0",
  "updatedAt": "2018-03-30T05:52:29.157Z"
}