{
  "contractName": "Stoppable",
  "abi": [
    {
      "constant": false,
      "inputs": [
        {
          "name": "newOwner",
          "type": "address"
        }
      ],
      "name": "setOwner",
      "outputs": [
        {
          "name": "res",
          "type": "bool"
        }
      ],
      "payable": false,
      "stateMutability": "nonpayable",
      "type": "function"
    },
    {
      "constant": true,
      "inputs": [],
      "name": "isOn",
      "outputs": [
        {
          "name": "",
          "type": "bool"
        }
      ],
      "payable": false,
      "stateMutability": "view",
      "type": "function"
    },
    {
      "constant": true,
      "inputs": [],
      "name": "owner",
      "outputs": [
        {
          "name": "",
          "type": "address"
        }
      ],
      "payable": false,
      "stateMutability": "view",
      "type": "function"
    },
    {
      "inputs": [],
      "payable": false,
      "stateMutability": "nonpayable",
      "type": "constructor"
    },
    {
      "anonymous": false,
      "inputs": [
        {
          "indexed": true,
          "name": "sender",
          "type": "address"
        },
        {
          "indexed": true,
          "name": "startOrStop",
          "type": "bool"
        }
      ],
      "name": "LogStartOrStop",
      "type": "event"
    },
    {
      "constant": false,
      "inputs": [
        {
          "name": "on",
          "type": "bool"
        }
      ],
      "name": "startOrStop",
      "outputs": [
        {
          "name": "success",
          "type": "bool"
        }
      ],
      "payable": false,
      "stateMutability": "nonpayable",
      "type": "function"
    }
  ],
  "bytecode": "0x6060604052341561000f57600080fd5b336000806101000a81548173ffffffffffffffffffffffffffffffffffffffff021916908373ffffffffffffffffffffffffffffffffffffffff1602179055506001600060146101000a81548160ff021916908315150217905550610347806100796000396000f300606060405260043610610062576000357c0100000000000000000000000000000000000000000000000000000000900463ffffffff16806313af403514610067578063175bbecf146100b85780638da5cb5b146100e5578063eddd8a621461013a575b600080fd5b341561007257600080fd5b61009e600480803573ffffffffffffffffffffffffffffffffffffffff16906020019091905050610177565b604051808215151515815260200191505060405180910390f35b34156100c357600080fd5b6100cb61021d565b604051808215151515815260200191505060405180910390f35b34156100f057600080fd5b6100f8610230565b604051808273ffffffffffffffffffffffffffffffffffffffff1673ffffffffffffffffffffffffffffffffffffffff16815260200191505060405180910390f35b341561014557600080fd5b61015d60048080351515906020019091905050610255565b604051808215151515815260200191505060405180910390f35b60008060009054906101000a900473ffffffffffffffffffffffffffffffffffffffff1673ffffffffffffffffffffffffffffffffffffffff163373ffffffffffffffffffffffffffffffffffffffff161415156101d457600080fd5b816000806101000a81548173ffffffffffffffffffffffffffffffffffffffff021916908373ffffffffffffffffffffffffffffffffffffffff16021790555060019050919050565b600060149054906101000a900460ff1681565b6000809054906101000a900473ffffffffffffffffffffffffffffffffffffffff1681565b60008060009054906101000a900473ffffffffffffffffffffffffffffffffffffffff1673ffffffffffffffffffffffffffffffffffffffff163373ffffffffffffffffffffffffffffffffffffffff161415156102b257600080fd5b81600060146101000a81548160ff0219169083151502179055508115153373ffffffffffffffffffffffffffffffffffffffff167f807c63a4d96aea04e9012bee90f76719fa7521b35eee8436a635ebd7ba6b5f4260405160405180910390a3600190509190505600a165627a7a72305820e759a22140f34e51cddec21aa070fcc423a9f11a5f4fca231b5a246de7f8d1df0029",
  "source": "pragma solidity ^0.4.17;\n\n\nimport \"./Ownable.sol\";\n\n\n/**\n * The contractName contract does this and that...\n */\ncontract Stoppable is Ownable {\n\n    bool public isOn;\n    event LogStartOrStop(address indexed sender, bool indexed startOrStop);\n\n    function Stoppable () public {\n        isOn = true;\n    }\n\n    function startOrStop (bool on)  public onlyOwner returns(bool success) {\n        isOn = on;\n        LogStartOrStop(msg.sender, on);\n        return true;\n    }\n\n    modifier isRunning() {\n        require(isOn == true);\n        _;\n    }\n\n}\n",
  "sourcePath": "/Users/rviparla/Ethereum/Prject3/contracts/Stoppable.sol",
  "compiler": {
    "name": "solc",
    "version": "0.4.19+commit.c4cbbb05.Emscripten.clang"
  },
  "schemaVersion": "2.0.0",
  "updatedAt": "2018-03-30T17:39:34.554Z"
}